:020000040800F2
:10000000E00900208D020008531A0008FF180008BC
:10001000511A00083D030008992300080000000061
:100020000000000000000000000000008D1E00081D
:100030003104000800000000491E0008151F0008D8
:10004000A7020008A7020008A7020008A7020008EC
:10005000A7020008A7020008A7020008A7020008DC
:10006000A7020008A7020008A7020008A7020008CC
:10007000A7020008A7020008A7020008A7020008BC
:10008000A7020008A7020008A7020008A7020008AC
:10009000A7020008A7020008A7020008A70200089C
:1000A000A7020008A7020008A7020008A70200088C
:1000B000A70200086D1F000821200008A702000801
:1000C000A7020008A7020008A7020008A70200086C
:1000D000A702000851210008E9220008A702000831
:1000E000A7020008A7020008A7020008A70200084C
:1000F000A7020008A7020008A7020008A70200083C
:10010000A7020008A702000859200008A70200085B
:10011000A7020008A7020008A7020008A70200081B
:10012000A7020008A7020008A7020008A70200080B
:10013000A7020008A7020008A7020008A7020008FB
:10014000A7020008A7020008A7020008A7020008EB
:10015000A7020008A7020008A7020008A7020008DB
:10016000A7020008A7020008A7020008A7020008CB
:10017000A7020008A7020008A7020008000000006C
:10018000A7020008A7020008A7020008A7020008AB
:10019000A7020008A7020008A7020008A70200089B
:1001A000A7020008A7020008A702000800F002F852
:1001B00000F05CF80AA090E8000C82448344AAF1A5
:1001C0000107DA4501D100F051F8AFF2090EBAE8A3
:1001D0000F0013F0010F18BFFB1A43F0010318477B
:1001E000542C0000742C00000A444FF0000C10F84E
:1001F000013B13F0070408BF10F8014B1D1108BFA5
:1002000010F8015B641E05D010F8016B641E01F844
:10021000016BF9D113F0080F1EBF10F8014BAD1C94
:100220000C1B09D16D1E58BF01F801CBFAD505E0B2
:1002300014F8016B01F8016B6D1EF9D59142D6D30C
:10024000704700000023002400250026103A28BF34
:1002500078C1FBD8520728BF30C148BF0B60704738
:100260001FB502F0D4FD1FBD10B510BD00F033F86E
:100270001146FFF7F5FF02F0B5F800F051F803B4AE
:10028000FFF7F2FF03BC02F088F80000094880473E
:1002900009480047FEE7FEE7FEE7FEE7FEE7FEE768
:1002A000FEE7FEE7FEE7FEE704480549054A064B80
:1002B00070470000191F0008AD010008E00300208E
:1002C000E0090020E0050020E005002070477047AD
:1002D000704770477047754600F02CF8AE46050031
:1002E0006946534620F00700854618B020B5FFF751
:1002F000DBFFBDE820404FF000064FF000074FF055
:1003000000084FF0000B21F00701AC46ACE8C00933
:10031000ACE8C009ACE8C009ACE8C0098D4670473C
:1003200010B50446AFF300802046BDE81040FFF74B
:10033000A6BF00000048704780030020FEE70000D1
:1003400070B58AB0184C174E0E9D266004F1400619
:1003500026631C36666363602261C4E9025000258F
:10036000C4E905150126E561C4E90856A5622046E1
:10037000E56200F021F910B101200AB070BD0395CB
:1003800004950E2001950295CDE90860CDE9065649
:10039000009505956946044800F09CF80028ECD0CB
:1003A0000220EAE7006400404C02002070B50D46D0
:1003B0000446002211460C4800F0C8F908B100209C
:1003C00070BD0022084904E002F11400185CA0543A
:1003D000521C4B6B18699042F6D803485C30006899
:1003E0002860486B007C70BD4C02002070B50F4C3B
:1003F0000023256B2A60256B6B60256BAB60256B3A
:10040000EB60226B116106E0C55C03F11402266B00
:100410005B1C9BB2B5548B42F6D30A21034800F013
:1004200035FA002800D0012070BD00004C020020E9
:100430007047CB0810B500EB8300036A4907C90E6B
:100440000F248C40A3430362036A8A401343036270
:1004500010BD2DE9F04F9946DDE909AC00234FF0BE
:10046000010B4FF0030E0BFA03F501EA0504AC4251
:100470002AD107685C000EFA04F6B74307600768E4
:1004800002FA04F847EA08070760012A01D0022AA5
:1004900012D18768B7438760D0F808800AFA04F75A
:1004A00048EA0708C0F808804768AF4347604768D4
:1004B00009FA03F52F434760C568B543C560C568B1
:1004C0000CFA04F42543C5605B1C102BCBD3BDE8AC
:1004D000F08F0000F0B50A7D01209040344A136887
:1004E00043F001031360136823F47C531360136813
:1004F0004C6A43EA042313602D4D1C352B6883435B
:100500002B602B4C2B4BCE690C34A6B92668864346
:1005100026608F894E6867F31F464F6903EBC70754
:10052000C7F840660F890E6867F31F464F6903EBF3
:10053000C707C7F84466CE69012E14D12668064362
:1005400026600E884C6866F31F444E6903EBC606AE
:10055000C6F840460E89CC6866F31F444E6903EB2B
:10056000C603C3F84446124B8C691B1D002C1C6843
:1005700006D004431C600E4B0C69143314B104E024
:100580008443F7E71C6884431C600C69012C02D18A
:100590001C6804431C60096A012902D129680143CF
:1005A0002960106820F0010010600020F0BD0000FC
:1005B00000660040006000402DE9F041040004D0D6
:1005C00094F83800002518B107E00120BDE8F0815B
:1005D00084F83950204600F091F8022084F8380061
:1005E0002068016821F0020101602068016841F083
:1005F0000101016000F0F8FA0746032604E000F06C
:10060000F3FAC01B0A2862D820684068C007F6D0F9
:1006100020684168C90767D0A169012901683FD0F6
:1006200021F080010160E0690128206801683AD06A
:1006300021F040010160206A01282068016835D05E
:1006400021F020010160606A01282068016830D033
:1006500021F010010160A06A0128206801682BD0F8
:1006600021F008010160E06A01282068016826D0B5
:1006700021F004010160D4E902010843D4E9041225
:10068000114308436168491E08432168C861206816
:10069000016821F00101016000F0A6FA07461BE0A5
:1006A00041F08001BEE741F04001C3E741F0200185
:1006B000C8E741F01001CDE741F00801D2E741F071
:1006C0000401D7E700F090FAC01B0A2804D904F807
:1006D000386F0320657079E720684068C007F1D162
:1006E00020684068C00703D0042084F838006CE715
:1006F000E563012084F83800002067E7114800B561
:10070000016887B041F000710160006800F000707E
:1007100005900C481038016841F00801016000683C
:10072000012100F008000590032000900220CDE98F
:1007300001010390092004906946034800F060F924
:1007400007B000BD40380240000C02402DE9F047E0
:10075000044690F8390016460D46012810D04FF097
:10076000010984F8399094F8380012280BD022201F
:1007700084F8380000F038FA07464FF0000812E01D
:100780000220BDE8F0873220F2E7701C0BD026B1C2
:1007900000F02AFAC01BB04205D9032084F83800C3
:1007A00084F83980EDE72068002D66D0006910F0EC
:1007B000030FEAD04FF4D870216800EB05100958F8
:1007C00011F00402616B8A602268616B125856D086
:1007D000D2084A6021680858616B00F00200C860C6
:1007E0004FF4DA70216800EB05100958626B01F0D4
:1007F0000F01116121680858616BC0F30720C861BF
:100800004FF4DC70216800EB05100958626B11751C
:1008100021680958626B090A517521680958626B91
:10082000090C917521680858616B000EC8754FF46A
:10083000DE70216800EB05100958626B11762168A3
:100840000958626B090A517621680958626B090CD4
:10085000917621680858616B000EC87621682020C7
:1008600085B1086194F8380032280DD0484684F8E4
:10087000380084F83980002083E7C06897E7520D7C
:100880000A60A7E7C860EDE71220F0E72DE9F05F06
:10089000044690F839000E46012812D04FF00109A5
:1008A00084F8399094F8380022280DD0122084F86A
:1008B0003800216888684FF00008400106D50025FF
:1008C0000DE00220BDE8F09F3220F0E788680001CB
:1008D00001D5012503E08868C0004FD502254FF4FB
:1008E000C07000EB05100A5802F001020A50216B9B
:1008F0008A68EAB323681F581743CA68496842EAFE
:10090000C1010F431F50216B0A7C02F00F020A61E4
:100910004FF4C271226801EB0511535823F00F0305
:10092000535022685358276B3F693B435350216B08
:100930004FF4C47303EB05130A7DD1F8151042EA96
:1009400001222168CA50216B4FF4C67303EB0513D3
:100950000A7ED1F8191042EA01212268D15021689B
:100960000A5842F001020A5000F03EF9074600E042
:100970000BE0DFF880A0DFF880B01DE0042084F8F1
:10098000380084F8398001209CE722681358CF682A
:1009900009883B4343EA41511150B4E7701C0BD026
:1009A00026B100F021F9C01BB04205D9032084F81C
:1009B000380084F8398085E795B12068012D816879
:1009C00013D00E4888430028E8D194F83800322824
:1009D0000ED0484684F8380084F83980002071E74A
:1009E000206881682AEA0100EDE72BEA0100EAE7C6
:1009F0002220EFE7030000040003000800000310BA
:100A00002DE9F84FDFF8A091002209F1040A0AF15C
:100A1000040B4FF00F080BF1040E01260B689640F3
:100A20003340B34271D14C68022C01D0122C11D149
:100A3000D40800EB84073D6A5407E40E08FA04FC6E
:100A400025EA0C05D1F810C00CFA04FC4CEA050CA0
:100A5000C7F820C007685400032591F804C0A540DA
:100A60000CF0030CAF430CFA04FC4CEA070CC0F882
:100A700000C04F68012F05D0022F03D0112F01D0E5
:100A8000122F11D18768D1F80CC0AF430CFA04FCC7
:100A90004CEA070CC0F808C04768B7430E79C6F3A4
:100AA000001696403E434660C668AE438D68A5403A
:100AB0003543C5604C68E4006FD53C4C256845F46F
:100AC00080452560246822F0030504F480440094E6
:100AD000374C2E19D6F808789407250F08FA05F434
:100AE000A743344CA04201D100242EE0324CA04256
:100AF00001D1012429E0314CA04201D1022424E09B
:100B00002F4CA04202D103241FE046E02D4CA0420E
:100B100001D1042419E02C4CA04201D1052414E099
:100B20002A4CA04201D106240FE0294CA04201D159
:100B300007240AE0274CA04201D1082405E0264CF6
:100B4000A04201D1092400E00A24AC403C43C6F88D
:100B50000848D9F800404D464E689C43F60300D53E
:100B60001C432C60DAF8004055464E689C43B6039F
:100B700000D51C432C60DBF800405D464E689C436A
:100B8000F60200D51C432C60DEF8004075464E6826
:100B90009C43B60200D51C432C60521C102AFFF463
:100BA0003CAFBDE8F88F0000003C014044380240F3
:100BB00000300140000002400004024000080240F2
:100BC000000C0240001002400014024000180240D5
:100BD000001C024000200240002402400AB1816152
:100BE00070470904FBE700000148006870470000F7
:100BF0001400002002480168491C01607047000091
:100C0000140000200B4810B5016841F40071016028
:100C1000016841F480610160016841F48071016004
:100C2000052000F049F80F2000F006F800F015F854
:100C3000002010BD003C024010B5044600F096F9BB
:100C40004FF47A71B0FBF1F000F07EFB00222146F8
:100C5000501E00F011F8002010BD08B500200090D3
:100C600008BD00F01F02012191404009800000F101
:100C7000E020C0F800117047F0B40E4B1B68C3F3BE
:100C80000223C3F10704042C00D904241D1D072DE1
:100C900001D2002300E0DB1E012606FA04F56D1EDA
:100CA0000D409D409E40761E164045EA0601F0BC70
:100CB00000F0D0BE0CED00E0064A00F0070110681D
:100CC0004FF6FF03184040EA012003490843106033
:100CD000704700000CED00E00000FA052DE9F84334
:100CE0001D48016841F0805101600068012700F053
:100CF00080500090380490FAA0F0DFF86080B0FADD
:100D000080F048F82070FFF76FFF04464FF47A75C3
:100D1000134E04E0FFF768FF001BA84213D8706869
:100D2000C003F7D54FF4003090FAA0F0B0FA80F08D
:100D300048F82070FFF758FF044607E0FFF754FF1C
:100D4000001BA84202D90320BDE8F8837068800325
:100D5000F4D50020F8E700004038024000000E42C1
:100D6000007000402DE9F05FDFF8F8A104460F465F
:100D7000DAF80000DFF8F08100F00F02C8B27A491B
:100D8000814641F2883608F10808BA4261D202462B
:100D90008AF80020DAF8000000F00F00B8427DD198
:100DA0002078800707D5D8F80020A36822F0F00249
:100DB0001A43C8F800202078C0072DD060680128A9
:100DC0001AD002281BD0032819D0096889070029E6
:100DD00064DAD8F80010474621F003010143C8F84F
:100DE0000010FFF701FF0546606801280FD00228B8
:100DF00018D003281CD027E009688903E7E70968B1
:100E00008901E4E7FFF7F0FE401BB04258D838688C
:100E1000C0F381000128F5D188E0FFF7E5FE401B13
:100E2000B0424DD83868C0F381000228F5D17DE08A
:100E30003868FFF7D9FE401BB042F9D940E0FFF710
:100E4000D3FE401BB0423BD8386810F00C0FF6D1EF
:100E50006CE02078800707D5D8F80020A36822F03E
:100E6000F0021A43C8F800202078C0074CD0606810
:100E7000012828D0022829D0032827D0096889070B
:100E8000002949DAD8F8002022F003020243C8F80A
:100E90000020FFF7A9FE0546606800E03CE001285D
:100EA0001DD0022829D0032838D0B34646463068E2
:100EB00010F00C0F28D0FFF797FE411B5945F6D9CB
:100EC0000320BDE8F09F09688903D9E70968890113
:100ED000D6E7FFF789FE411B594502D9F0E7B34633
:100EE00046463068C0F381000128F2D10CE0FFF7DC
:100EF0007BFE411B594502D9E2E7B34646463068BE
:100F0000C0F381000228F2D18AF80090DAF80000DC
:100F100000F00F00B84209D00120D2E74446206813
:100F2000FFF762FE401BB042F9D9C9E720784007BD
:100F300007D5D8F80010E26821F4E0511143C8F851
:100F400000102078000708D5D8F80010226921F495
:100F5000604141EAC201C8F800100F20FFF76CFEA3
:100F60000020AEE7003C02400038024010B500F01F
:100F700017F808490968F02292FAA2F201F0F0018C
:100F8000B2FA82F2D140044A515CC8400349086079
:100F900010BD000008380240222E0008000000208A
:100FA00030B51948006810F00C01184812D0184CE0
:100FB00004290ED008290DD1134A121F1168136895
:100FC00001F03F015D0247F6C07304D5B4FBF1F0B8
:100FD00003E0204630BDB0FBF1F01168194093FAF0
:100FE000A3F3B3FA83F3D940484311684FF4403276
:100FF00092FAA2F201F44031B2FA82F2D140491CD5
:101000004900B0FBF1F030BD083802400024F40084
:1010100040787D012DE9F84F04460078DFF8FCA206
:10102000BF4DC0074FF0000648D0DAF80010504618
:10103000C1F38101012908D00068C0F381000228B2
:101040000AD1281D0068400206D52868800335D5DE
:101050006068002873D031E0DFF8C49209F102091A
:1010600089F80060FFF7C0FD074641F2883804E0C8
:10107000FFF7BAFDC11B41457AD828688003F7D431
:10108000207989F80000606860B1FFF7ADFD074680
:1010900004E0FFF7A9FDC11B4145EDD82868800396
:1010A000F7D50BE0FFF7A0FD074604E0FFF79CFD36
:1010B000C11B4145E0D828688003F7D42078DFF8C9
:1010C0006492800744D5DAF80010504611F00C0FF6
:1010D0004FF0F80809D00068C0F3810002280BD156
:1010E0008E48001F0068400206D42868800714D587
:1010F000E068012823D110E0E068D0B10120C9F8F0
:101100000000FFF771FD074604E0FFF76DFDC01B0F
:101110006428B1D828688007F7D5286898FAA8F21B
:101120002169B2FA82F220F0F80091400843286069
:101130000EE0C9F80060FFF757FD074605E0EAE05A
:10114000FFF752FDC01B642812D828688007F7D427
:101150002078000725D5DFF8C4817348616908F15C
:101160006C0881B101210160FFF73EFD074605E0F3
:101170007EE0FFF739FDC01B642879D8D8F800005D
:101180008007F6D50DE00660FFF72EFD074604E068
:10119000FFF72AFDC01B64286AD8D8F80000800732
:1011A000F6D42078400753D55C483830016841F0C8
:1011B000805101600068DFF8748100F08050009079
:1011C000D8F8001041F48071C8F80010FFF70CFD4A
:1011D000074604E0FFF708FDC01B642848D8D8F88C
:1011E0000000C005F6D5DFF834B10BF1680B8BF8C1
:1011F0000060FFF7F9FC074641F2883804E0FFF78A
:10120000F3FCC11B41457ED8DBF800008007F6D413
:10121000207A8BF80000A06868B1FFF7E5FC07466C
:1012200004E0FFF7E1FCC11B41456CD8DBF800008E
:101230008007F6D50CE0FFF7D7FC074604E0FFF780
:10124000D3FCC11B41455ED8DBF800008007F6D413
:10125000A069E8B3DAF80010C1F3810102295AD07D
:10126000022806D0C9F86060FFF7BEFC04464DE0D6
:1012700049E04F46C9F86060FFF7B6FC064604E057
:10128000FFF7B2FC801B64283DD828688001F7D4A2
:10129000D4E90701084347F6C07191FAA1F1626AE7
:1012A000B1FA81F18A40A16A4FF0FF3303EB51019B
:1012B0004FF4403393FAA3F3B3FA83F399400A430C
:1012C00010434FF0706292FAA2F2B2FA82F200E09A
:1012D0001FE0E16A914008431049091F086001209E
:1012E0003866FFF781FC044604E0FFF77DFC001B35
:1012F000642808D828688001F7D50AE0FFF774FC55
:10130000001B642802D90320BDE8F88F28688001FB
:10131000F4D40020F8E70120F6E700000838024086
:101320000038024000004742800E474200700040F3
:101330004FF0E0210428086903D020F00400086180
:10134000704740F00400FAE710B5401EB0F1807F0E
:1013500001D3012010BD4FF0E02460610F21601720
:1013600000F078FB0020A06107202061002010BD64
:101370007047704710B5040003D094F8390010B1DD
:1013800007E0012010BD002084F83800204600F05E
:101390000DF8022084F83900211D206800F078FE45
:1013A000012084F83900002010BD000038B5044643
:1013B00000681F491F4D88420FD1286840F0020085
:1013C00028602868022200F00200009001211D2000
:1013D000FFF752FC1D20FFF744FC174920688842A4
:1013E0000FD1286840F0040028602868032200F02C
:1013F0000400009002211E20FFF73EFC1E20FFF794
:1014000030FC0E492068884211D1286840F008005D
:1014100028602868002200F0080000900321322094
:10142000FFF72AFCBDE838403220FFF71ABC38BD70
:10143000000400404038024000080040000C00401A
:101440000168CA6842F00102CA600068016841F0A0
:101450000101016000207047704770B504460068C4
:1014600001694FF00005C943890715D4C168C94314
:10147000890711D4E91E0161012020762068806966
:101480008007204602D0FFF7E7FF04E000F098F85D
:10149000204600F096F8257620680169C94349077F
:1014A00017D4C168C943490713D46FF0040101611F
:1014B000022020762068806910F4407F204602D008
:1014C000FFF7CAFF04E000F07BF8204600F079F84F
:1014D000257620680169C943090716D4C168C94344
:1014E000090712D46FF008010161042020762068FA
:1014F000C0698007204602D0FFF7AEFF04E000F08D
:101500005FF8204600F05DF8257620680169C94340
:10151000C90617D4C168C943C90613D46FF01001B6
:101520000161082020762068C06910F4407F2046C1
:1015300002D0FFF791FF04E000F042F8204600F0EF
:1015400040F8257620680169C943C90708D1C168F8
:10155000C943C90704D1891E0161204600F032F851
:1015600020680169C943090609D4C168C94309064D
:1015700005D46FF0800101612046FFF7F9FE206875
:101580000169C943490609D4C168C943490605D45C
:101590006FF040010161204600F0B0F92068016958
:1015A000C94389060BD4C168C943890607D46FF0C3
:1015B000200101612046BDE87040FFF7DABE70BD32
:1015C00070477047F0B506462DED068B002589B0B3
:1015D000BD48BE4C86421DD160892378BC4901229A
:1015E000984204D2C1F89822C1F8A42203E0C1F8BD
:1015F0009852C1F8A4526378B649984202D2C1F811
:10160000802201E0C1F88052A0F54071E7390CD08A
:10161000401C6081AC483C30864275D1A089B0F551
:101620002F6F0DD2401CA0816EE0AB496581D1F8CF
:101630009C0218B10020C1F89C02EBE70120FAE7F8
:1016400094ED0D0AD4ED0E0AB2EE001A70EE201AD7
:1016500030EEC00AF1EE0C0A61EE811A20EE010AAA
:10166000FDEEE11ABDEEC00A11EE900A02B210EED4
:10167000100AA28001B2E18094ED0F0A20EE200A48
:10168000BDEEC00A10EE100A00B2131800EE103AB8
:1016900020810B1AB8EEC00A0144101A84ED130A17
:1016A00000EE103AB8EEC00A84ED140A00EE101AEB
:1016B000B8EEC00A84ED150A00EE100A8748B8EEAD
:1016C000C00A84ED160A007801282AD06584E582D4
:1016D00025836583A5838248007802287DD08DF814
:1016E000185002958DF8195003958DF81B500795E9
:1016F0004FF40072082106A8FEF778FE40F2FF12B0
:10170000082102A8FEF772FE6F487830864265D144
:1017100074490878002861D0E27890427ED0A570A4
:10172000CBE0D4ED120A9FED700A00F047FB84ED88
:10173000090A10EE107AA06A01F0F8FA9FED6BAB7F
:1017400053EC1A2B01F00AF941EC180B384601F062
:10175000EDFA9FED689B53EC192B01F0FFF853EC69
:10176000182B01F053F801F01FF800EE100A84ED79
:101770000A0ABDEEC00A10EE100A2084D4ED110A48
:1017800094ED100A00F0C2FA84ED0B0A10EE107A04
:10179000206B01F0CBFA53EC1A2B01F0DFF841EC8F
:1017A000180B384601F0C2FA53EC192B01F0D6F8A9
:1017B00053EC182B01F02AF800F0F6FF00EE100AA7
:1017C00084ED0C0ABDEEC00A10EE100A4042E08320
:1017D000B4F90E0000EE100A01E03FE06FE0F8EE11
:1017E000C00A94ED130A00F045F9BDEEC00A10EEF0
:1017F000100AE082B4F9100000EE100AF8EEC00AF8
:1018000094ED140A00F094F9B1EE400ABDEEC00A5E
:1018100010EE100A2083B4F9120000E044E000EE5C
:10182000100AF8EEC00A94ED150A00F0CFF9BDEEEB
:10183000C00A10EE100A6083B4F9140000EE100A1A
:10184000F8EEC00A94ED160A00F010FAB1EE400A64
:10185000BDEEC00A10EE100AA0833CE7208C010AFE
:101860008DF808108DF80900E08B0395010A8DF8BA
:101870000A108DF80B00E08A010A8DF818108DF817
:101880001900208B010A8DF81A108DF81B00608B4F
:10189000010A8DF81C108DF81D00A08B010A8DF82F
:1018A0001E108DF81F0023E7A078142802D90D70B0
:1018B000E570A570A078401CA0700878E07009B0B1
:1018C000BDEC068BF0BD0000CC0200203C000020E7
:1018D0000080434200004042000042421C000020C1
:1018E000210000202200002000000000CDCCCCCC44
:1018F000CCCCEC3F9A9999999999B93F7047FEE7FA
:101900000C4800B5026887B0002142F0080202606E
:10191000006800F0080005904FF48060CDE90001F8
:10192000012002900320039069460348FFF768F8FE
:1019300007B000BD30380240000C02402DE9F041F4
:10194000234886B0016841F010010160016801F090
:1019500010010591016841F020010160016801F06A
:1019600020010591016841F0400101600068DFF845
:10197000648000F0400005908020009001200190DC
:1019800002900320039069464046FFF739F8124E53
:101990004FF48044694630460094FFF731F80F4F0A
:1019A0006510694638460095FFF72AF80122802124
:1019B0004046FFF713F9012221463046FFF70EF9A2
:1019C000012229463846FFF709F906B0BDE8F08143
:1019D000303802400010024000140240001802405B
:1019E000F0B5064614460F461D46184600F01EF890
:1019F000C5F1040086400F21E940394031436009B8
:101A0000800000F1E020D0F8002104F01F05012340
:101A1000AB401A43C0F8002104F1E02494F800041C
:101A200040EA011084F80004F0BD0000064A0721D6
:101A3000814310684FF6FF031840044B184340EAF7
:101A400001201060704700000CED00E00000FA0576
:101A5000FEE770470907090E002806DA00F00F00BC
:101A600000F1E02080F8141D704700F1E02080F8BC
:101A70000014704730EE600A264A274810EE101A0C
:101A800091420FDA10EE101A244A91420AD210EE57
:101A9000901A11F17F5F05D0D0ED1B0A70EE800A1D
:101AA000C0ED1B0AD0ED020A1B491D4A60EE800AF8
:101AB0008031C1ED110A90ED031AD0ED1B1A21EE11
:101AC000211A81ED121AD0ED1C1A90ED042A70EE45
:101AD000810A70EE611A61EE821AC1ED131A70EE7E
:101AE000A10AC1ED140A80ED1C0A10EE900A904282
:101AF00003DD9FED0C0A81ED140A0B4A086D90423C
:101B000002D800EE100A70479FED080A81ED140A12
:101B100070470000000061449C000020000061C488
:101B200000409C4500409C4500409CC500409CC531
:101B300030EE601A1E4A1F4811EE101A91420FDA59
:101B400011EE101A1C4A91420AD210EE901A11F1AD
:101B50007F5F05D090ED1E0A30EE010A80ED1E0A6F
:101B600090ED050AD0ED1E0A90ED072A60EE011AED
:101B700090ED060A114960EE200A90ED1F0A80EDF3
:101B80001F1A31EE400A71EEA00A20EE020A30EE72
:101B9000800A10EE100A884201DD9FED090A09490A
:101BA00010EE100A884201D99FED070A7047000025
:101BB000000061449C000020000061C400409C457E
:101BC00000409C4500409CC500409CC530EE601A1A
:101BD0001F4A204811EE101A91420FDA11EE101A26
:101BE0001D4A91420AD210EE901A11F17F5F05D082
:101BF00090ED010A30EE010A80ED010A1549D0EDA1
:101C0000010A803991ED080A91ED0A2A60EE011A65
:101C100091ED090A114960EE200A90ED020A80ED6B
:101C2000021A31EE400A71EEA00A20EE020A30EEEE
:101C3000800A10EE100A884201DD9FED090A094969
:101C400010EE100A884201D99FED070A7047000084
:101C5000000061441C010020000061C400409C455C
:101C600000409C4500409CC500409CC530EE601A79
:101C70001F4A204811EE101A91420FDA11EE101A85
:101C80001D4A91420AD210EE901A11F17F5F05D0E1
:101C900090ED040A30EE010A80ED040A1549D0EDFA
:101CA000040A803991ED0B0A91ED0D2A60EE011ABC
:101CB00091ED0C0A114960EE200A90ED050A80EDC5
:101CC000051A31EE400A71EEA00A20EE020A30EE4B
:101CD000800A10EE100A884201DD9FED090A0949C9
:101CE00010EE100A884201D99FED070A70470000E4
:101CF000000061441C010020000061C40080BB455D
:101D00000080BB450080BBC50080BBC530EE600ACB
:101D1000234A244810EE101A91420ADA10EE101AE3
:101D2000214A914205D2D0ED180A70EE800AC0ED2A
:101D3000180AD0ED0E0A1B491C4A60EE800A803159
:101D4000C1ED090AD0ED0F1A90ED181A21EE811A93
:101D500081ED0A1AD0ED191A90ED102A70EE810A61
:101D600070EE611A61EE821AC1ED0B1A70EEA10AD3
:101D7000C1ED0C0A80ED190A10EE900A904203DDC5
:101D80009FED0B0A81ED0C0A0A4A086B904202D8BB
:101D900000EE100A70479FED080A81ED0C0A7047AB
:101DA0000000FA439C0000200000FAC300401C45DC
:101DB00000401C4500401CC500401CC530EE600AB8
:101DC0001C481D4A00F1800180ED140AD0ED110A73
:101DD00060EE800AC1ED0D0A90ED121AD0ED151AD1
:101DE00021EE211A81ED0E1AD0ED161A90ED132A6C
:101DF00070EE810A70EE611A61EE821AC1ED0F1A5F
:101E000070EEA10AC1ED100A80ED160A10EE900ADC
:101E1000904203DD9FED090A81ED100A084A086C23
:101E2000904202D800EE100A70479FED060A81ED3D
:101E3000100A70479C00002000401C4500401C45D3
:101E400000401CC500401CC570470000831A0E4AA4
:101E500010B518B29080B0F5805F04DDA3F5F8539B
:101E6000FF3B538008E000F58054B4F5005F02D9D1
:101E700041F6FF701844508011B1508840425080A4
:101E8000B2F9020010BD00009C0000207047000065
:101E900070B51E4C92B00025266846F0805626602C
:101EA000246804F080541194194C266846F4404686
:101EB000266024680DF1240C04F44044119401249C
:101EC00000940194022406948CE80D006605CDE987
:101ED00007616846FFF79EF800B1FEE7FEF7FEFED9
:101EE00000B1FEE70CA90F2081E831004FF4A050AB
:101EF0000F904FF48050109005210CA8FEF732FF90
:101F0000002800D0FEE712B070BD0000403802404B
:101F100000700040FEF76EBE1048016841F4700189
:101F200001600F48016841F0010101600C4A002185
:101F30000832116002680B4B1A400260031D0A4A06
:101F40001A60026822F48022026005480C300160A9
:101F500002495806803908607047000088ED00E0AB
:101F600000380240FFFFF6FE103000240148FFF762
:101F700074BA0000CC0200202DE9F04180462348CD
:101F80000D4686B00168002441F00101016001683E
:101F900001F001010591016841F0800101600068D4
:101FA000012600F0800005904020CDE900060220C7
:101FB00002900320164F039069463846FEF720FD35
:101FC0007002009069463846FEF71AFD0096114EE1
:101FD00069463046FEF714FD00224FF41071384672
:101FE000FEF7FCFD002201213046FEF7F7FD0B480D
:101FF00009490160C0E90154C0E90384FFF7BAF957
:102000000648FFF71DFA06B0BDE8F08130380240FF
:10201000001C02400000024000040040CC020020EE
:102020000148FFF71ABA000008030020094A10B55A
:10203000074BC2E900310021C2E9021010461161CC
:10204000FFF798F9BDE810400248FFF7F9B9000022
:1020500000080040080300200148FFF7FEB9000017
:1020600044030020094A10B5074BC2E900310021A2
:10207000C2E9021010461161FFF77CF9BDE810407B
:102080000248FFF7DDB90000000C004044030020C7
:10209000F0B50268234D244E244FDFF894C0254B41
:1020A0004FF0804EA84209D0704507D0B04205D00D
:1020B000B84203D0604501D0984203D122F07004A9
:1020C0004A682243A8421BD0704519D0B04217D0AD
:1020D000B84215D0604513D0984211D0164CA0429A
:1020E0000ED0164CA0420BD0154CA04208D0154C77
:1020F000A04205D0144CA04202D0144CA04203D1FF
:1021000022F44074CA68224302608A68C2620A6884
:102110008262A84201D0984201D10969016301217C
:102120004161F0BD00000140000400400008004093
:10213000000C004000040140004001400044014008
:102140000048014000180040001C004000200040F2
:102150002DE9F0415648016889067CD54168564C06
:10216000544BA0791954401CC0B2A071112872D1EF
:102170009879002500286FD1D87900286CD1187A79
:10218000002869D1587A002866D1987A002863D14E
:10219000D87A002860D11888C0F30A06A68158783A
:1021A000C108987841EA4011C1F30A02E281D97866
:1021B000800940EA8101187941EA8021C1F30A01CE
:1021C00021825B79400840EAC310C0F30A009F09EE
:1021D00060822771C3F301136371A6F22D1740F2D9
:1021E00077539F4208D2A6F5806600EE106A334E00
:1021F000B8EEC00A86ED000AA2F22D169E4208D261
:10220000A2F5806200EE102A2D4AB8EEC00A82EDD7
:10221000000AA1F22D129A4208D2A1F5806100EEC7
:10222000101A2849B8EEC00A81ED000AA0F22D115B
:10223000994227D2A0F5806000EE100A224EB8EE37
:10224000C00A86ED000A00F085F9204886ED000AF4
:10225000D0ED000A01E021E01FE030EE800A1C4AC8
:1022600010EE101A80ED000A914202DD9FED190A6E
:1022700006E010EE101A184A914203D99FED170A92
:1022800080ED000A20793C231549164A012807D021
:10229000032808D0312008701570A571BDE8F081C1
:1022A0000B70442001E00B704B201070F5E700002C
:1022B00000100140700100201C0000207000002070
:1022C0007400002078000020980000207C0000208E
:1022D0000000164400001644000016C4000016C496
:1022E0003C0000203D00002030B5264800688006F4
:1022F0001BD52448001D0068234BC1B25889020435
:102300000CD4224A0024552910D0C0F30D05401CDE
:1023100080B251555881C72800D95C811C49D1F839
:10232000B80268B30020C1F8B80230BD4FF40040D5
:102330005881107800EE100AF8EE400AB2EE040A56
:1023400080EE801A83ED051A50789FED121A00EE88
:10235000900AF8EE600AC0EE811AC3ED061A907872
:1023600000EE900AF8EE600A80EE801A83ED071AFC
:10237000D078AA2801D01C70CFE701201870CCE7D4
:102380000120D0E7004400401C0000208201002012
:102390000080424200007A44FEE7704710B50446D0
:1023A0000420FEF7C5FF0148046010BD180000209E
:1023B00070B54FF0E02500216C69094AAB691268DD
:1023C0005043AA699A42FCD002D2A3EB020302E076
:1023D000A4EB02063344194413468142F1D370BD85
:1023E000180000201FB50024FEF70CFC0823022271
:1023F0000C214FF4B470FFF74BFDB420FFF7CEFF74
:10240000FFF79CFAFFF77CFA4FF415710220FFF7F3
:10241000B3FD592140F2E730FFF708FE59210920AA
:10242000FFF720FE444D5A20294600F0D7F82946F0
:102430002D2000F043F9002003234FF4E0224FF455
:10244000A0010090FDF77CFF4FF47A6503A901A875
:10245000FDF7ACFFF0B30398A0F50071053919D171
:10246000BDF80400354E40BA00EE100A40F2E652C4
:102470000121B8EE400A86ED000ABDEEC00A10EE5A
:10248000100A00B2FFF7E2FC00EE100AB8EEC00A34
:1024900086ED000A0398A0F50071063918D1BDF841
:1024A0000400274E40BA00EE100A41F66162B8EE11
:1024B000400A86ED000ABDEEC00A10EE100A00B216
:1024C000FFF7C4FC00EE100AB8EEC00A86ED000A61
:1024D000039800E024E0A0F50071013904D1BDF8B3
:1024E0000610184A49BA1180A0F50071023905D1C9
:1024F000BDF80610144A49BA49421180A0F500718E
:10250000033904D1BDF80610104A49BA1180B0F55C
:10251000017F05D1BDF806000D4940BA4042088050
:10252000641CA4B23220FFF743FFAC428ED11420CA
:10253000FFF73EFF002489E7A08601008400002009
:10254000800000204A0000204C0000204E000020A7
:102550005000002030B51D4BDFED1D0A03F1800255
:102560001978012901D1C2ED070A1A4C9169A142DB
:102570000EDD92ED071AB4EEC10AF1EE10FA02DD9B
:1025800082ED070A04E010EE105AA54200DA01209D
:10259000114CA1420ED992ED071AB4EEC10AF1EE28
:1025A00010FA02D282ED070A04E010EE101AA142DE
:1025B00000D2012082ED060A1870012802D0B0EE88
:1025C000600A30BD92ED070A30BD00009C0000207B
:1025D0000000000000007041000070C17CB5334A6B
:1025E000504300EE100A08014FF6FF72F8EE400A61
:1025F00000EE100AB8EE401A80EE810AFCEEC00A26
:1026000010EE900A80B200EE900A02EA0010F8EE96
:10261000600A30EE600AF3EE000A20EE200ABCEEFB
:10262000C00A10EE101A084485B22148016841F032
:10263000020101601E481430016841F01001016080
:1026400002200121CDE900011A4C02460023C021DD
:102650002046FDF7FEFE072206212046FDF7E9FE93
:10266000072211462046FDF7E4FE134CA560E06802
:1026700020F40040E060E06820F40070E060E06872
:1026800040F00800E060E06840F00400E060E068CE
:1026900040F02000E0600021022325220846FFF7D9
:1026A0009FF9E06840F40050E0607CBD40420F00BC
:1026B0003038024000040240001001407CB5364A28
:1026C000504300EE100A08014FF6FF72F8EE400A80
:1026D00000EE100AB8EE401A80EE810AFCEEC00A45
:1026E00010EE900A80B200EE900A02EA0010F8EEB6
:1026F000600A30EE600AF3EE000A20EE200ABCEE1B
:10270000C00A10EE101A084484B22448016841F04F
:102710000801016002200121CDE90001204D02469F
:10272000002360212846FDF794FE07220521284654
:10273000FDF77FFE072206212846FDF77AFE17489F
:102740001030016841F4003101601448103801680C
:1027500041F400310160016821F400310160114849
:102760000460001D016842F20C021143016001681F
:1027700021F400710160016841F004010160016809
:1027800041F02001016002B00223BDE87040262222
:1027900003210020FFF724B940420F0030380240E7
:1027A000000C02400844004021F00042A2F16052B7
:1027B000B2F5801F01F0004328BFD2F17F6C0BD926
:1027C0005FEA001C43EAC20242EB507018BF704738
:1027D00028BF20F001007047B2F5801FBCBF18462B
:1027E00070474FEA410C1CF5001F02D2084600F06A
:1027F00013BB70B500F05CF900000089FFF7F6BF6D
:102800004FF00040A0F580007047000010B591EA3D
:10281000030F48BF83F0004300F1A681841A71EBD7
:10282000030C05D2121943EB0C03001B61EB0C01E6
:10283000DFF824E14FEA1154A4EB135C1EEA430FC6
:1028400018BF9EEA445F73D023EA0E03DCF1200E2A
:1028500021EA045143F4801332D322FA0CFE10EB28
:102860000E0023FA0CFE41EB0E01CCF1200E03FA10
:102870000EFE10EB0E0051F10001B1F5801FCCF1FE
:10288000200E32D201EB045112FA0EF2BDE81040D4
:1028900058BF7047401C38BF5FEA420218BF7047FC
:1028A000002814BF20F0010041F100014FEA41036C
:1028B00013F5001F38BF7047A1F1C04100F046B9C1
:1028C000012A43EB0302ACF1200CDCF11F0E32BFF6
:1028D0004FF0000E23FA0CF310EB030041EB045110
:1028E000B4EB115FD0D0A1EB045101F58011490880
:1028F0005FEA300001EB04510ED350F1000038BF05
:1029000012FA0EFE08D1BDE81040C9E7401C38BFDE
:102910005FEA4202CAD1C3E7BDE810404FEA410373
:1029200013F5001F38BF7047A1F1C04100F00EB988
:102930009EEA445F08D011EA5E0FBDE8104004BF74
:1029400001F0004100207047BDE8104070B500F074
:10295000AFF800BF64FBBE3E0000E0FFDFF848C1F7
:1029600070B51CEA111E1EBF1CEA13159EEA0C0F5F
:1029700095EA0C0F00F06F8081EA030423EA4C1300
:102980004EEAD47E21EA4C1141F4801143F48013C5
:10299000AE44A1FB024CA0FB0365AEF17F7E36196D
:1029A00055EB0C05A1FB034C4CF10003A0FB021CF2
:1029B00016EB0C06654153F10003094218BF46F0BF
:1029C000010613F4007F0BD14FEA03314FEA0530C3
:1029D000340341EA155140EA16506FF003020AE051
:1029E0004FEAC3214FEAC520F40241EA555140EABB
:1029F00056506FF0020202EB2E4201EB025585EABF
:102A0000CE710AD05FEA440C18BF24F0004450F1A4
:102A1000000041F1000120EAD47040F2FE7C6245E2
:102A200000D270BDA84214BF4FF080444FF0404424
:102A3000002E08BF0024BEF1806FA8BFA1F1C041E5
:102A4000BDE8704080F282804FF0000001F1C0418B
:102A500001F0004170479EEA0C0F0CEA131518BFF5
:102A600095EA0C0F06D04FF0000081EA030E0EF03D
:102A7000004170BD00F01CF88900013E00F007B86D
:102A800000F009B84FEA430C5FEA5C5C08D081EAC9
:102A9000030100F05BB84FEA410C5FEA5C5CF6D1E1
:102AA0004FF00000014970470000FF070000F87F69
:102AB0000EF1020E2EF0030E5EF8046B364205D4C2
:102AC000012A43EB030515F5001F12D8012841EB3D
:102AD000010C1CF5001F0CD80ED14FEAD17C15F566
:102AE000001F0CEB4C0C0CF1020C08BF4CEBD37C20
:102AF00004E04FF0080C01E04FEAD37C0CEB4C05EE
:102B000026FA05F606F00706B6F1040C06D20EEB1F
:102B1000860CBDE870404CF0010C6047DFE80CF01B
:102B2000090B02024FF000414FF00000A1F5002117
:102B300070BD19461046012851EB010418BFD4F5A9
:102B4000001484BF002001F0004170BD0808A0F50A
:102B500000114FEA3101704710B591EA030F48BFE9
:102B600083F000433FF55AAE841A71EB030C07D291
:102B700012198CF0004C43EB0C03001B61EB0C01B1
:102B8000DFF8A4E14FEA1154A4EB135C1EEA430FF3
:102B900018BF9EEA445F00F0B08023EA6E03524201
:102BA00021EA0451C3EB6E0338BF5B1EDCF1200E3B
:102BB00025D322FA0CFE10EB0E0043FA0CFE41EB7B
:102BC0000E01CCF1200E03FA0EFE10EB0E0051F1B7
:102BD0000001CCF1200E29D412FA0EF201EB0451BF
:102BE000BDE8104058BF7047401C1CBFB2F1004FF9
:102BF000704700280CBF491C20F00100704712EB01
:102C0000020E43EB030218BF4FF0010E4EEA4202E0
:102C1000ACF1200CDCF11E0E54D943FA0CFE10EB83
:102C20000E0051F1FF31CCF11E0ED5D50EF1010E83
:102C300012FA0EFE404141EB010101EB445C5FEAF8
:102C40005C5C10D910EBDE7001EB045138BFBEF1B3
:102C5000004FBDE8104018BF704700280CBF491C4A
:102C600020F00100704730D24FEAD42C11F500114A
:102C700024F400641BD0B1FA81F20B3AA41AA41E0A
:102C8000D2F12003914030FA03F31943904001EB55
:102C9000CC71002C01EB0451BDE81040A8BF704777
:102CA00001F1C0414FF0000001F000417047B0FA5F
:102CB00080F310FA03F100D110BDE41A173C480567
:102CC000C90AE4E701EB045110BD491001EB0451BE
:102CD000BDE810404FEA300002E04FF000017047BD
:102CE0004A0008BF0042F8D0B2F5001F28BF704765
:102CF00001F000414FF0000070479EEA445F07D0AA
:102D000011EA5E0FBDE8104004BF002100207047AB
:102D1000BDE8104070B5FFF7CBFE00BF40DFF63EC8
:102D200083F00041104670470000E0FF43004FEA87
:102D3000D30C4FEA3C0C43401FBF40070CF16051DD
:102D400013F0FE4F70471CF0006F03D100200CF011
:102D5000004170470CF0004343EA507010B540EA60
:102D6000CC0000F00EF800BF000000924FEA000116
:102D7000FFF7ECBE4FF000414FF00000A1F500213D
:102D800070470EF1020E2EF0030E5EF8044B244243
:102D900004D44FEA4102B2F17F4F11D84FEA400309
:102DA000B3F17F4F0CD80ED14FEAD07CB2F17F4FF8
:102DB0000CEB4C0C0CF1020C08BF4CEBD17C04E08A
:102DC0004FF0080C01E04FEAD17C0CEB4C0324FAE5
:102DD00003F404F00704B4F1040C06D20EEB840CE7
:102DE000BDE810404CF0010C6047DFE80CF007082C
:102DF00002024FF00040A0F5800010BD08464200DE
:102E000018BFD2F1807288BF00F0004010BD4FF0B3
:102E10004070E1EE100A7047FF2141EAD050C00532
:102E200070470000000001020304010203040607CA
:102E300008090000542E0008000000207001000066
:102E4000E8010008842E00087001002070080000CE
:102E500044020008119324F47809010203040607D0
:102E6000080910011F0368314B271841CDCCCC3C19
:102E70000B22803F0C65666646408BA0430C0384A2
:042E8000B943000052
:04000005080001AD41
:00000001FF
